S018000057686F6C65207468696E6720746573742E73726563F3
S11300000C942A000C943C000C943C000C943C008E
S11300100C943C000C943C000C943C000C943C006C
S11300200C943C000C943C000C94B8000C943C00E0
S11300300C943C000C94D0000C943C000C943C00B8
S11300400C943C000C943C000C943C000C943C003C
S11300500C943C0011241FBECFE5D8E0DEBFCDBF19
S113006020E0A0E6B0E001C01D92A536B207E1F79A
S11300700E943E000C9420010C9400008AB38C7FF3
S11300808ABB8FEF84BB8AB3806F8ABB81B38860DD
S113009081BB83B7886083BF83B7826083BF12BE8E
S11300A08AE08CBF89B7826089BF10BC83E389B9B9
S11300B080E98AB986E880BD789482B3877F82BB61
S11300C025E82A95F1F7000082B3886082BB85E8B1
S11300D08A95F1F7000082B3877F82BB04C0109237
S11300E0630010926200829BFACF08C08091620084
S11300F09091630090936100809360008299F6CFA1
S113010080916000909161008335910538F485B346
S1130110806885BB8BB38F708BBB20C0C89B09C024
S11301208BB38F7080668BBB95B381E0892785BBC9
S113013015C0C99B09C08BB38F7080698BBB95B305
S113014082E0892785BB0AC085B38F7785BB8BB3D3
S11301508F7080658BBB85B38C7F85BB9FEF20E759
S113016082E0915020408040E1F700C00000A5CF1C
S11301701F920F920FB60F9211248F939F93809129
S113018062009091630001969093630080936200F3
S113019012BE9F918F910F900FBE0F901F901895D4
S11301A01F920F920FB60F9211242F938F939F9348
S11301B08CB180936400809164008823C9F180919C
S11301C064008C34A9F028F4823469F0863431F068
S11301D024C08235B1F08335E9F01FC08BB38F7032
S11301E080658BBB1AC08BB38F70806A8BBB15C0C4
S11301F08BB38F7080698BBB95B382E0892785BBF5
S11302000CC08BB38F7080668BBB95B381E089275C
S113021085BB03C08BB38F708BBB2FEF80E792E05D
S1130220215080409040E1F700C00000109264002B
S11302309F918F912F910F900FBE0F901F90189543
S1070240F894FFCF5C
S9030000FC
