S0160000426C7565746F6F746820746573742E7372656378
S11300000C942A000C943C000C943C000C943C008E
S11300100C943C000C943C000C943C000C943C006C
S11300200C943C000C943C000C943C000C943C005C
S11300300C943C000C9455000C943C000C943C0033
S11300400C943C000C943C000C943C000C943C003C
S11300500C943C0011241FBECFE5D8E0DEBFCDBF19
S113006020E0A0E6B0E001C01D92A136B207E1F79E
S11300700E943E000C9499000C9400008FEF84BB06
S11300808AB3806F8ABB10BC83E389B980E98AB9DB
S11300908EE880BD7894809160008B36E1F785B35B
S11300A0816085BB10926000F6CF1F920F920FB64D
S11300B00F9211242F938F939F938CB180936000A0
S11300C0882379F18C34A9F028F4823469F08634D9
S11300D031F01CC0823591F08335A9F017C08BB381
S11300E08F7080658BBB12C08BB38F70806A8BBBA3
S11300F00DC08BB38F7080698BBB08C08BB38F70BE
S113010080668BBB03C08BB38F708BBB2FEF80E7F4
S113011092E0215080409040E1F700C0000010922E
S113012060009F918F912F910F900FBE0F901F90A1
S10901301895F894FFCFBE
S9030000FC
