:100000000C942A000C9434000C9434000C943400AA
:100010000C9434000C9434000C9434000C94340090
:100020000C9434000C9434000C9434000C94340080
:100030000C9434000C9434000C9434000C94340070
:100040000C9434000C9434000C9434000C94340060
:100050000C94340011241FBECFE5D8E0DEBFCDBF25
:100060000E9436000C944F000C9400008AB38C7FE1
:100070008ABB8AB3806F8ABBC89B05C08BB38F7065
:1000800080668BBBF9CFC99B05C08BB38F7080692D
:100090008BBBF2CF8BB38F7080658BBBEDCFF894A9
:0200A000FFCF90
:00000001FF
